{
  "contractName": "MyGame",
  "abi": [
    {
      "constant": false,
      "inputs": [
        {
          "name": "name",
          "type": "string"
        }
      ],
      "name": "ShowScore",
      "outputs": [
        {
          "name": "",
          "type": "int256"
        }
      ],
      "payable": false,
      "stateMutability": "nonpayable",
      "type": "function"
    }
  ],
  "bytecode": "0x6060604052341561000f57600080fd5b6101fc8061001e6000396000f300606060405260043610610041576000357c0100000000000000000000000000000000000000000000000000000000900463ffffffff168063f06c5f0f14610046575b600080fd5b341561005157600080fd5b6100a1600480803590602001908201803590602001908080601f016020809104026020016040519081016040528093929190818152602001838380828437820191505050505050919050506100b7565b6040518082815260200191505060405180910390f35b60008073e6b23e3ff5f6e55c5f6a4526bbbee6326f89bb4f90508073ffffffffffffffffffffffffffffffffffffffff1663308d1964846000604051602001526040518263ffffffff167c01000000000000000000000000000000000000000000000000000000000281526004018080602001828103825283818151815260200191508051906020019080838360005b83811015610162578082015181840152602081019050610147565b50505050905090810190601f16801561018f5780820380516001836020036101000a031916815260200191505b5092505050602060405180830381600087803b15156101ad57600080fd5b6102c65a03f115156101be57600080fd5b505050604051805190509150509190505600a165627a7a72305820ce191e67fc7b3cd4fe7d556f3d30adacac94df828d631a496f7d0ddc725041a70029",
  "source": "pragma solidity ^0.4.17;\ncontract IScoreStore{\n    function GetScore(string name) returns (int);\n}\n\ncontract MyGame{\n    function ShowScore(string name) returns (int)\n    {   \n        //find the address from StoreStore.deployed().\n        IScoreStore scoreStore = IScoreStore(0xe6b23e3ff5f6e55c5f6a4526bbbee6326f89bb4f);\n        return scoreStore.GetScore(name);\n    }\n}",
  "sourcePath": "/Users/zubo/Blockchain Fundamentals/demo/MyGame/contracts/MyGame.sol",
  "compiler": {
    "name": "solc",
    "version": "0.4.19+commit.c4cbbb05.Emscripten.clang"
  },
  "schemaVersion": "2.0.0",
  "updatedAt": "2018-03-05T06:37:42.929Z"
}